:020000040800F2
:10300000005000203D500008E1500008E150000849
:10301000E1500008E1500008E15000080000000005
:10302000000000000000000000000000A1C0000837
:10303000E150000800000000D9C0000865790008D0
:10304000E1500008E1500008E1500008E15000089C
:10305000E1500008E1500008E1500008E15000088C
:10306000E1500008E1500008E1500008E15000087C
:10307000E1500008E150000841810008E1500008DB
:10308000E1500008E1500008E1500008E15000085C
:1030900019CE0008E1500008E1500008E150000896
:1030A000E1500008E1500008E1500008397D0008B7
:1030B000457D00084D7D0008597D0008C563000866
:1030C00099650008C96300089D650008E150000883
:1030D000E150000875810008AD810008E15000084A
:1030E000BD5B0008E15000081DCE00080000000094
:1030F00000000000000000000000000000000000D0
:0C31000000000000000000005FF808F173
:1031100010B5054C237833B9044B13B10448AFF311
:1031200000800123237010BD9C05002000000000DA
:1031300080020108084B10B51BB108480849AFF3DD
:1031400000800848036803B910BD074B002BFBD073
:10315000BDE81040184700BF0000000080020108D1
:10316000A00500209C0500200000000081F0004127
:1031700002E000BF83F0004330B54FEA41044FEA5C
:10318000430594EA050F08BF90EA020F1FBF54EAF7
:10319000000C55EA020C7FEA645C7FEA655C00F093
:1031A000E2804FEA5454D4EB5555B8BF6D420CDD64
:1031B0002C4480EA020281EA030382EA000083EAE7
:1031C000010180EA020281EA0303362D88BF30BD87
:1031D00011F0004F4FEA01314FF4801C4CEA1131DD
:1031E00002D0404261EB410113F0004F4FEA03333C
:1031F0004CEA133302D0524263EB430394EA050FC7
:1032000000F0A780A4F10104D5F1200E0DDB02FA35
:103210000EFC22FA05F2801841F1000103FA0EF2C9
:10322000801843FA05F359410EE0A5F120050EF18F
:10323000200E012A03FA0EFC28BF4CF0020C43FAC0
:1032400005F3C01851EBE37101F0004507D54FF0CD
:10325000000EDCF1000C7EEB00006EEB0101B1F51D
:10326000801F1BD3B1F5001F0CD349085FEA300063
:103270004FEA3C0C04F101044FEA445212F5800F6E
:1032800080F09A80BCF1004F08BF5FEA500C50F10B
:10329000000041EB045141EA050130BD5FEA4C0CEE
:1032A000404141EB010111F4801FA4F10104E9D177
:1032B00091F0000F04BF01460020B1FA81F308BF6E
:1032C0002033A3F10B03B3F120020CDA0C3208DD3A
:1032D00002F1140CC2F10C0201FA0CF021FA02F115
:1032E0000CE002F11402D8BFC2F1200C01FA02F185
:1032F00020FA0CFCDCBF41EA0C019040E41AA2BFAA
:1033000001EB0451294330BD6FEA04041F3C1CDA71
:103310000C340EDC04F11404C4F1200220FA04F091
:1033200001FA02F340EA030021FA04F345EA03013B
:1033300030BDC4F10C04C4F1200220FA02F001FAFD
:1033400004F340EA0300294630BD21FA04F029467F
:1033500030BD94F0000F83F4801306BF81F4801118
:103360000134013D4EE77FEA645C18BF7FEA655C8B
:1033700029D094EA050F08BF90EA020F05D054EA5D
:10338000000C04BF1946104630BD91EA030F1EBF62
:103390000021002030BD5FEA545C05D14000494166
:1033A00028BF41F0004130BD14F580043CBF01F559
:1033B000801130BD01F0004545F0FE4141F470013F
:1033C0004FF0000030BD7FEA645C1ABF194610461A
:1033D0007FEA655C1CBF0B46024650EA013406BF1B
:1033E00052EA033591EA030F41F4002130BD00BFDA
:1033F00090F0000F04BF0021704730B54FF4806497
:1034000004F132044FF000054FF0000150E700BF17
:1034100090F0000F04BF0021704730B54FF4806476
:1034200004F1320410F0004548BF40424FF0000163
:103430003EE700BF42004FEAE2014FEA31014FEAA6
:1034400002701FBF12F07F4393F07F4F81F06051F5
:10345000704792F0000F14BF93F07F4F704730B564
:103460004FF4607401F0004521F0004120E700BFF7
:1034700050EA010208BF704730B54FF000050AE07E
:1034800050EA010208BF704730B511F0004502D57F
:10349000404261EB41014FF4806404F132045FEA81
:1034A000915C3FF4DCAE4FF003025FEADC0C18BF26
:1034B00003325FEADC0C18BF033202EBDC02C2F11C
:1034C000200300FA03FC20FA02F001FA03FE40EAAE
:1034D0000E0021FA02F11444C1E600BF70B54FF0AE
:1034E000FF0C4CF4E06C1CEA11541DBF1CEA135590
:1034F00094EA0C0F95EA0C0F00F0DEF82C4481EAF8
:10350000030621EA4C5123EA4C5350EA013518BF17
:1035100052EA033541F4801143F4801338D0A0FB04
:1035200002CE4FF00005E1FB02E506F00042E0FBB1
:1035300003E54FF00006E1FB03569CF0000F18BFB7
:103540004EF0010EA4F1FF04B6F5007F64F540745F
:1035500004D25FEA4E0E6D4146EB060642EAC621F2
:1035600041EA55514FEAC52040EA5E504FEACE2E5F
:10357000B4F1FD0C88BFBCF5E06F1ED8BEF1004F62
:1035800008BF5FEA500E50F1000041EB045170BDDE
:1035900006F0004646EA010140EA020081EA030122
:1035A000B4EB5C04C2BFD4EB0C0541EA045170BD1E
:1035B00041F480114FF0000E013C00F3AB8014F198
:1035C000360FDEBF002001F0004170BDC4F10004E1
:1035D000203C35DA0C341BDC04F11404C4F1200562
:1035E00000FA05F320FA04F001FA05F240EA0200BD
:1035F00001F0004221F0004110EBD37021FA04F6F3
:1036000042EB06015EEA430E08BF20EAD37070BDAC
:10361000C4F10C04C4F1200500FA04F320FA05F00B
:1036200001FA04F240EA020001F0004110EBD3700D
:1036300041F100015EEA430E08BF20EAD37070BD7D
:10364000C4F1200500FA05F24EEA020E20FA04F356
:1036500001FA05F243EA020321FA04F001F0004105
:1036600021FA04F220EA020000EBD3705EEA430E76
:1036700008BF20EAD37070BD94F0000F0FD101F0A5
:103680000046400041EB010111F4801F08BF013CDE
:10369000F7D041EA060195F0000F18BF704703F01C
:1036A0000046520043EB030313F4801F08BF013DA3
:1036B000F7D043EA0603704794EA0C0F0CEA13555F
:1036C00018BF95EA0C0F0CD050EA410618BF52EA19
:1036D0004306D1D181EA030101F000414FF000001F
:1036E00070BD50EA410606BF1046194652EA43062D
:1036F00019D094EA0C0F02D150EA013613D195EAA1
:103700000C0F05D152EA03361CBF104619460AD1E8
:1037100081EA030101F0004141F0FE4141F47001F2
:103720004FF0000070BD41F0FE4141F4780170BDE2
:1037300070B54FF0FF0C4CF4E06C1CEA11541DBF47
:103740001CEA135594EA0C0F95EA0C0F00F0A7F849
:10375000A4EB050481EA030E52EA03354FEA013176
:1037600000F088804FEA03334FF0805545EA131389
:1037700043EA12634FEA022245EA111545EA106551
:103780004FEA00260EF000419D4208BF964244F1E8
:10379000FD0404F5407402D25B084FEA3202B61A07
:1037A00065EB03055B084FEA32024FF480104FF4DB
:1037B000002CB6EB020E75EB030E22BFB61A75464F
:1037C00040EA0C005B084FEA3202B6EB020E75EBE2
:1037D000030E22BFB61A754640EA5C005B084FEA4A
:1037E0003202B6EB020E75EB030E22BFB61A754617
:1037F00040EA9C005B084FEA3202B6EB020E75EB22
:10380000030E22BFB61A754640EADC0055EA060EE2
:1038100018D04FEA051545EA16754FEA06164FEA25
:10382000C30343EA52734FEAC2025FEA1C1CC0D1D1
:1038300011F4801F0BD141EA00014FF000004FF05E
:10384000004CB6E711F4801F04BF01430020B4F11F
:10385000FD0C88BFBCF5E06F3FF6AFAEB5EB030CD7
:1038600004BFB6EB020C5FEA500C50F1000041EBD4
:10387000045170BD0EF0004E4EEA113114EB5C04A1
:10388000C2BFD4EB0C0541EA045170BD41F4801174
:103890004FF0000E013C90E645EA060E8DE60CEA7C
:1038A000135594EA0C0F08BF95EA0C0F3FF43BAF99
:1038B00094EA0C0F0AD150EA01347FF434AF95EA50
:1038C0000C0F7FF425AF104619462CE795EA0C0F34
:1038D00006D152EA03353FF4FDAE1046194622E701
:1038E00050EA410618BF52EA43067FF4C5AE50EADB
:1038F00041047FF40DAF52EA43057FF4EBAE12E7CB
:103900004FEA4102B2F1E04324BFB3F5001CDCF101
:10391000FE5C0DD901F0004C4FEAC0024CEA507039
:10392000B2F1004F40EB830008BF20F00100704768
:1039300011F0804F21D113F13872BCBF01F000406B
:10394000704741F480114FEA5252C2F11802C2F19D
:10395000200C10FA0CF320FA02F018BF40F001001E
:103960004FEAC1234FEAD32303FA0CFC40EA0C00D0
:1039700023FA02F34FEA4303CCE77FEA625307D10D
:1039800050EA01331EBF4FF0FE4040F44000704744
:1039900001F0004040F0FE4040F40000704700BFDE
:1039A00080F0004002E000BF81F0004142001FBFF4
:1039B0005FEA410392EA030F7FEA226C7FEA236CFD
:1039C0006AD04FEA1262D2EB1363C1BFD2184140F2
:1039D00048404140B8BF5B42192B88BF704710F088
:1039E000004F40F4000020F07F4018BF404211F02B
:1039F000004F41F4000121F07F4118BF494292EA93
:103A0000030F3FD0A2F1010241FA03FC10EB0C00BE
:103A1000C3F1200301FA03F100F0004302D549424B
:103A200060EB4000B0F5000F13D3B0F1807F06D3F8
:103A300040084FEA310102F10102FE2A51D2B1F1F0
:103A4000004F40EBC25008BF20F0010040EA0300E5
:103A50007047490040EB000010F4000FA2F1010292
:103A6000EDD1B0FA80FCACF1080CB2EB0C0200FA1C
:103A70000CF0AABF00EBC25052421843BCBFD0406A
:103A80001843704792F0000F81F4000106BF80F4E4
:103A900000000132013BB5E74FEA41037FEA226CA7
:103AA00018BF7FEA236C21D092EA030F04D092F072
:103AB000000F08BF0846704790EA010F1CBF0020A6
:103AC000704712F07F4F04D1400028BF40F0004003
:103AD000704712F100723CBF00F50000704700F023
:103AE000004343F0FE4040F4000070477FEA22624A
:103AF00016BF08467FEA23630146420206BF5FEA1B
:103B0000412390EA010F40F4800070474FF000031A
:103B100004E000BF10F0004348BF40425FEA000CE1
:103B200008BF704743F0964301464FF000001CE089
:103B300050EA010208BF70474FF000030AE000BFDF
:103B400050EA010208BF704711F0004302D540421D
:103B500061EB41015FEA010C02BF8446014600208F
:103B600043F0B64308BFA3F18053A3F50003BCFAAA
:103B70008CF2083AA3EBC25310DB01FA02FC634457
:103B800000FA02FCC2F12002BCF1004F20FA02F25E
:103B900043EB020008BF20F00100704702F1200251
:103BA00001FA02FCC2F1200250EA4C0021FA02F2B2
:103BB00043EB020008BF20EADC7070474FF0FF0CB7
:103BC0001CEAD0521EBF1CEAD15392EA0C0F93EAB2
:103BD0000C0F6FD01A4480EA010C400218BF5FEA54
:103BE00041211ED04FF0006343EA501043EA5111C7
:103BF000A0FB01310CF00040B1F5000F3EBF4900C1
:103C000041EAD3715B0040EA010062F17F02FD2AC4
:103C10001DD8B3F1004F40EBC25008BF20F00100A7
:103C2000704790F0000F0CF0004C08BF49024CEABE
:103C3000502040EA51207F3AC2BFD2F1FF0340EA50
:103C4000C250704740F400004FF00003013A5DDCC1
:103C500012F1190FDCBF00F000407047C2F1000202
:103C6000410021FA02F1C2F1200200FA02FC5FEAEF
:103C7000310040F1000053EA4C0308BF20EADC7039
:103C8000704792F0000F00F0004C02BF400010F4AB
:103C9000000F013AF9D040EA0C0093F0000F01F058
:103CA000004C02BF490011F4000F013BF9D041EA7A
:103CB0000C018FE70CEAD15392EA0C0F18BF93EA7C
:103CC0000C0F0AD030F0004C18BF31F0004CD8D1A6
:103CD00080EA010000F00040704790F0000F17BF2D
:103CE00090F0004F084691F0000F91F0004F14D073
:103CF00092EA0C0F01D142020FD193EA0C0F03D1CB
:103D00004B0218BF084608D180EA010000F00040CD
:103D100040F0FE4040F40000704740F0FE4040F4A8
:103D2000400070474FF0FF0C1CEAD0521EBF1CEA47
:103D3000D15392EA0C0F93EA0C0F69D0A2EB030265
:103D400080EA010C49024FEA402037D04FF08053FF
:103D500043EA111143EA10130CF000408B4238BFC4
:103D60005B0042F17D024FF4000C8B4224BF5B1AD2
:103D700040EA0C00B3EB510F24BFA3EB510340EA20
:103D80005C00B3EB910F24BFA3EB910340EA9C00CE
:103D9000B3EBD10F24BFA3EBD10340EADC001B013E
:103DA00018BF5FEA1C1CE0D1FD2A3FF650AF8B42E2
:103DB00040EBC25008BF20F0010070470CF0004CEF
:103DC0004CEA50207F32C2BFD2F1FF0340EAC2501A
:103DD000704740F400004FF00003013A37E792F0DB
:103DE000000F00F0004C02BF400010F4000F013A39
:103DF000F9D040EA0C0093F0000F01F0004C02BF34
:103E0000490011F4000F013BF9D041EA0C0195E79C
:103E10000CEAD15392EA0C0F08D142027FF47DAF35
:103E200093EA0C0F7FF470AF084676E793EA0C0F25
:103E300004D14B023FF44CAF08466EE730F0004C23
:103E400018BF31F0004CCAD130F000427FF45CAFB3
:103E500031F000437FF43CAF5FE700BF4FF0FF3C21
:103E600006E000BF4FF0010C02E000BF4FF0010C74
:103E70004DF804CD4FEA40024FEA41037FEA226C3D
:103E800018BF7FEA236C11D001B052EA530C18BF5F
:103E900090EA010F58BFB2EB030088BFC81738BFC4
:103EA0006FEAE17018BF40F0010070477FEA226CB2
:103EB00002D15FEA402C05D17FEA236CE4D15FEAAE
:103EC000412CE1D05DF8040B704700BF84460846E2
:103ED0006146FFE70FB5FFF7C9FF002848BF10F1A3
:103EE000000F0FBD4DF808EDFFF7F4FF0CBF0120E8
:103EF00000205DF808FB00BF4DF808EDFFF7EAFF72
:103F000034BF012000205DF808FB00BF4DF808ED2C
:103F1000FFF7E0FF94BF012000205DF808FB00BF21
:103F20004DF808EDFFF7D2FF94BF012000205DF8A7
:103F300008FB00BF4DF808EDFFF7C8FF34BF0120B4
:103F400000205DF808FB00BF4FEA4002B2F1FE4FCF
:103F50000FD34FF09E03B3EB12620DD94FEA00234B
:103F600043F0004310F0004F23FA02F018BF404224
:103F700070474FF00000704712F1610F01D142020B
:103F800005D110F0004008BF6FF0004070474FF0BF
:103F90000000704742000ED2B2F1FE4F0BD34FF03B
:103FA0009E03B3EB126209D44FEA002343F00043AF
:103FB00023FA02F070474FF00000704712F1610FD2
:103FC00001D1420202D14FF0FF3070474FF00000A4
:103FD000704700BF03685A004CBF43F0004323F012
:103FE00000431844704700BF2DE9F04F83B099B3E8
:103FF0004B1E1746054698460193002606EB08041B
:1040000004EBD47464104FEAC40A05EB0A0B58465B
:10401000FFF7E0FF019B8146A3420AF10800284414
:104020000ED0FFF7D7FFB94500F1FF3004D9B442F5
:104030000CD004F1FF38E1E7B84203D2661CDDE79B
:10404000B945F4D8584603B0BDE8F08F4FF0000BE7
:10405000584603B0BDE8F08F8B46584603B0BDE824
:10406000F08F00BF012807D0022807D0044B00289A
:104070000CBF18460020704702487047024870473E
:10408000794700087D4700088147000830B5254B77
:1040900083B004468D1E7BB3284601A9AFF3008090
:1040A00020B301992A46FFF79FFF0546F0B1FFF7BD
:1040B00091FF6B68A064012B12D0002B05F1040066
:1040C00021DBFFF787FF0023E06423650368002BF3
:1040D0001DDBFFF77FFF00232061184603B030BDD2
:1040E000002323610523184603B030BD002323615C
:1040F0000923184603B030BD0B490C4B0846591A2A
:10410000C9100191CEE70123E0642365DEE7C3F324
:104110000360FFF7A7FF002820610CBF09230023DD
:10412000DBE700BF00000000BC0201081404010826
:10413000036810B5DA07044606D49B0700F148006F
:1041400009D500F085FC2368590709D51A070ED553
:10415000DB0613D510BD00F073FC23685907F5D4B6
:1041600004F1D00000F07CFC23681A07F0D404F5B9
:10417000A87000F07DFC2368DB06EBD404F5E87042
:10418000BDE8104000F0B8BC03680BB1184470479C
:104190001846704709207047704700BF70B5044645
:1041A0000D4608E02A6C23696261012021462A46F7
:1041B0009847082808D12046296CFFF767FF064674
:1041C0000028EFD00AF088FF0728FBD13046296C81
:1041D000FFF7E2FF281D00F027FC00BF2DE9F047A4
:1041E0000646ADF5727D03AD0C1D17460FCC0FC50D
:1041F0000FCC0FC50FCC0FC594E80F0002AC4FF0E9
:10420000000ED6F80C80D6F8189085E80F003046DE
:10421000216CC4F800E0FFF739FF0546002F0CBF02
:1042200009270A277DB1A36B47F010018DE8100222
:104230000120636432463346C04778BB28460DF5FB
:10424000727DBDE8F087236C214673614FF4F072F4
:104250007AA800F07DFE336931467AAA384698473D
:10426000889B82468DE810023946636401203246FD
:104270003346C04790B920467AA94FF4F07200F057
:1042800067FEBAF1080F06D13046216CFFF7FEFE3B
:1042900009270546C6E7BAF1070F04D009200DF536
:1042A000727DBDE8F0872846216CFFF775FF03A8F3
:1042B00000F0BAFB406C7047F0B5CB6BF9B00B6403
:1042C0000E1D01AD0F4604460FCE0FC50FCE0FC514
:1042D0000FCE0FC596E80F004FF0FF3685E80F00B0
:1042E000009606E0236921466A4698470828054655
:1042F00008D120461099FFF7C9FE0028F2D0092006
:1043000079B0F0BD6846FFF713FF062DF7D12046C0
:104310003946FFF743FF00BF30B4DD6BC1608261F7
:1043200019461D64002230BC58E700BF70B54369D0
:10433000C66804460D460B6426B10122FFF74EFF06
:104340000AF0CAFE0369214602202A469847072838
:1043500007D0082803D120462946FFF71FFF0AF09F
:10436000BBFE3046296CFFF717FF281D00F05CFBF1
:10437000C26832B110B4CC6B00220C645DF8044BFF
:104380002CE799E7704700BF836813B1014601200D
:104390001847704700B5042907D8DFE801F0030982
:1043A000060909000BB90F2A05D902205DF804FBA4
:1043B00001205DF804FB00EB820252681846019B65
:1043C0001A605DF804FB00BF00B585B00A4603AB78
:1043D000002100930B46FFF7DDFF039805B05DF861
:1043E00004FB00BF00B5042907D8DFE801F003098A
:1043F000060909000BB90F2A05D902205DF804FB54
:1044000001205DF804FB019900EB8202096818465F
:1044100051605DF804FB00BF10B50C4684B004ABDE
:1044200043F8042D0021009322460B46FFF7DAFFE4
:1044300004B010BDF0B5D36BADF50F7D1364151D41
:1044400017AC07460E460FCD0FC40FCD0FC40FCDCE
:104450000FC495E80F004FF0FF3584E80F00169564
:1044600011E016A86A46FFF7D7FF16A83146B847ED
:1044700080B9049B0820694616AA98470528044677
:1044800009D0092806D026996846FFF7FFFD0C21C0
:104490000028E6D0092416A8FFF74AFE20460DF5AD
:1044A0000F7DF0BD2DE9F04FCC6C904622688BB0AB
:1044B00004340D460792089400F003091E46002BB1
:1044C00064D11202032307928DF825608DF8243001
:1044D0002B6DB9F1020F08BFAC6B13F0010343D190
:1044E00000F00800C2B2039201932768002F3DD06C
:1044F000022E47D02788B4F802A00434AB6C2AF00F
:10450000010B40460F219B44FFF75EFF834537D8E0
:1045100027F001039B4458452CBF002001200AF0DE
:10452000010A07F0010747EA4A0ABAF1010F43D02E
:104530003AD3BAF1020F1FD1236823F0004202924E
:10454000B9F1000F7BD138B1039A002A00F08380C3
:10455000029A002A00F0A680002B7ADB029B03F16E
:10456000010A04EB8A04C0E700230193022E40DD18
:10457000FFF710FE002842D009200BB0BDE8F08FF5
:104580000020CCE7D4F804A00834B7E7022B9FDC66
:10459000130CDFB2120402218DF8253004EB8704DE
:1045A00007928DF8241093E7B9F1000F02D000288C
:1045B00040F0AD80043498E7B9F1000F26D1B0B1D6
:1045C00094E80C00D70F9A1CD6D005F1580201339D
:1045D000069200F09280201DFFF7D6FD3A46014674
:1045E00006AB2846AFF30080002840F0B5800834C1
:1045F0007BE7404607A900F019FB0028BCD1019BCE
:10460000002B59D108200BB0BDE8F08F40460D219A
:104610002F6AFFF7D9FE8742E9D1AB6A9C42E6D107
:104620002046FFF7D7FC0F2102464046FFF7F4FE75
:1046300040462A460021FFF7EFFE07209DE740464F
:104640000D212F6AFFF7C0FE874245D02368002B5B
:1046500084DA043482E7029B23B305F158030596FC
:10466000039F04F1040ADDF808B0CDF810901E464F
:1046700002E0D9454F4615D050460696FFF784FD17
:104680000022014606AB2846AFF3008007F101097E
:104690000AF1040A0028ECD0029BDDF810909F423A
:1046A000059ED3D140460D21FFF78EFE069B286262
:1046B000AC626B62062060E70F214046FFF784FE84
:1046C0000E2102464046FFF7A7FE40460F21294A29
:1046D000FFF7A2FE072050E7AB6A9C42B6D1042246
:1046E00002990027A318A962EF622A636B6323680B
:1046F000BB421FDB0123019330E740460D21FFF74A
:1047000063FE2862069B6B62AC62062035E720469A
:10471000FFF760FC04340646AC632846AFF3008024
:1047200000283FF429AF404632460F21FFF774FEC0
:10473000072022E70846013004EB8000FFF74AFC1F
:104740000F2102464046FFF767FE404639462A469B
:10475000FFF762FE072010E707460D214046FFF7EE
:1047600033FE022F2862CDD12B46069A43F82C2F18
:104770006B62C9E700000000002393E6012391E685
:1047800002238FE6F0B50546C5B004290CD8DFE852
:1047900001F056030B300E00012B4FEA124496B283
:1047A00065D0052B00F08380022045B0F0BD002BC2
:1047B000FAD1102AF8D82B68DC0600F1E98022AE85
:1047C0003046019200F0A2F9A86B019A002301245F
:1047D00004FA03F1114203D00168043046F82310B3
:1047E0000133042BF4D1A863304600F085F9002092
:1047F000DBE7032BD8D1140C97B23B19102BD3D87D
:104800002B681E0700F1E48022AE30467F0000F0E6
:1048100051F906EBC4027B1EAC6B57B12146043A3A
:1048200051F8040B013B42F8040F581CF8D104EB7B
:1048300087043046AC6300F01BF90020B5E7002B7D
:10484000B2D1AC6B97B2281D012606FA03F13942AA
:1048500003F1010302D0216804340160102B00F140
:104860000400F2D112F400501FD1AC639DE732195D
:10487000102A99D80F2C97D829680027C80754D434
:1048800022A8019300F0E0F8019B19E008463746A2
:10489000012B00F097800F2CA86302D822A800F00B
:1048A000D7F817B102A800F0DBF800207DE7371930
:1048B000202F3FF679AF0F2C30D93746002E44D148
:1048C000A96B3246002EE1D000278E4644A84FEA5D
:1048D000420C00EBC4000CF1FF328C385EF8046B24
:1048E000013A40F8046F561CF8D101EB8C00002F00
:1048F000CED02246102C44A938BF102201EBC202B0
:10490000A2F5C47201467800043A01EB800051F828
:10491000046B814242F8046FF9D1B9E7102F41D9F5
:104920002A68103FD007114610D521F00102052B4F
:104930002A60019328465BD021F0030140F8481B10
:1049400000F082F8019B002F4AD02A6851075BD4FF
:10495000012B63D00F2C04D822A8019300F07CF81F
:10496000019B002FACD002A8019300F07DF8019BC1
:10497000C4F11002002AA96BA7DC2246102C44A81F
:1049800038BF102200EBC202A2F5C4727800BBE768
:1049900023F010032B6005F5E870019200F0B6F8E3
:1049A000019A0CE72968C8071DD5284621F00102A5
:1049B00042F0020240F8482B0193002700F04CF827
:1049C000019BC9E70430A86322A800F039F86CE71E
:1049D00023F008032B6005F5A87000F06BF813E7CF
:1049E000012B3FF44DAF0F2C98BF0027B4D967E7D8
:1049F00042F0020240F8482B00F02EF8019B002FF5
:104A0000AAD02A685107A5D5284622F0040240F80A
:104A1000D02B019300F028F8019B99E722A801937D
:104A200000F012F8019BA3E700F1340191E838008F
:104A30009C46A6464CF8045D90E8FF0FE54600BD95
:104A400090EC210B704700BF80EC210B704700BF3A
:104A500090EC200B704700BF80EC200B704700BF2C
:104A6000D0EC200B704700BFC0EC200B704700BF9C
:104A7000F0EC0201F0EC0211F0EC0221F0EC02315A
:104A8000F0EC0241F0EC0251F0EC0261F0EC02714A
:104A9000F0EC0281F0EC0291F0EC02A1F0EC02B13A
:104AA000F0EC02C1F0EC02D1F0EC02E1F0EC02F12A
:104AB000704700BFE0EC0201E0EC0211E0EC0221E3
:104AC000E0EC0231E0EC0241E0EC0251E0EC02618A
:104AD000E0EC0271E0EC0281E0EC0291E0EC02A17A
:104AE000E0EC02B1E0EC02C1E0EC02D1E0EC02E16A
:104AF000E0EC02F1704700BFB0FC0181B0FC019115
:104B0000B0FC01A1B0FC01B1704700BFA0FC018165
:104B1000A0FC0191A0FC01A1A0FC01B1704700BF65
:104B2000EC4600B52DE900502DE9FF1F4FF00003C2
:104B30002DE90C0001A9FFF7BFFBDDF840E012B042
:104B4000704700BFEC4600B52DE900502DE9FF1F6E
:104B50004FF000032DE90C0001A9FFF7E7FBDDF89A
:104B600040E012B0704700BFEC4600B52DE90050A0
:104B70002DE9FF1F4FF000032DE90C0001A9FFF7FD
:104B8000F7FBDDF840E012B0704700BFEC4600B51F
:104B90002DE900502DE9FF1F4FF000032DE90C0017
:104BA00001ABFFF7B9FBDDF840E012B0704700BF82
:104BB000EC4600B52DE900502DE9FF1F4FF0000332
:104BC0002DE90C0001AAFFF735FCDDF840E012B03A
:104BD000704700BF037A1BB9437A43B9B0207047CE
:104BE0005A1E036802721A020260180E7047426869
:104BF000013B10B4437213680321141D01721A02A1
:104C0000446002605DF8044B180E704700B585B033
:104C100003AB002100930C220B46FFF7BBFB03986C
:104C200005B05DF804FB00BFF0E700BF2DE9F043DD
:104C300006460D4685B04FF000082846FFF7CAFF2C
:104C4000B028044600F0B58020F07F0111F0FF018C
:104C500020D000F0F003802B7AD0902B36D0A02B00
:104C600049D0B02B5CD0C02B00F0898000F0F80355
:104C7000D02B0BD100F00702013242F40022304663
:104C800001210523FFF77EFD0028D6D0092005B0BD
:104C9000BDE8F0830DF10C090B468700CDF80090BC
:104CA00030460D22FFF776FBFFB2039B0437600608
:104CB0004FF000014CBFDF1BFF18CDF800900B46F2
:104CC00030460D220397FFF78DFBB6E700F00D038A
:104CD0000D2BDBD003AF002100F00F020B46009735
:104CE0003046FFF757FB002100970B4630460D2258
:104CF000FFF778FBA1E7C3434FF47F6203F007039C
:104D00001A41010702F47F624FF0000148BF42F4EC
:104D100080420B463046FFF735FD0028B6D18CE7C0
:104D2000B1284CD0B2285DD0B32800F08A8000F0C2
:104D3000FC03B42BAAD000F007020132012142F497
:104D400000220B463046FFF71DFD00289ED174E778
:104D50002846FFF73FFF24022043B0F5004F95D0CF
:104D600004010021A2B20B463046FFF70BFD0028DC
:104D70008CD114F4004F18BF4FF001085DE7C6282E
:104D800072D0C7287AD000F0F803C02B00F08980D9
:104D9000C82800F0A580C9287FF478AF2846FFF71F
:104DA00019FF00F00F02013200F0F00042EA003279
:104DB00065E7B8F1000F00F08280002067E7284621
:104DC000FFF708FF024600283FF460AF10F0F00143
:104DD0007FF45CAF30460B46FFF7D4FC00287FF42D
:104DE00055AF2AE700210DF10C090D220B46CDF835
:104DF00000903046FFF7CEFA2846FFF7EBFE02069A
:104E00004FF002040CD5039B00F07F00A040034448
:104E100028460393FFF7DEFE030604F10704F2D4ED
:104E2000039B00F07F00A04003F5017300211C18D4
:104E3000CDF800900B4630460D220394FFF7D2FACE
:104E4000FBE62846FFF7C6FE00F00F02013200F035
:104E5000F000012142EA00320B463046FFF792FC97
:104E600000287FF413AFE8E62846FFF7B3FE00F012
:104E70000F02013200F0F0000321EBE72846FFF7B4
:104E8000A9FE024600283FF401AF10F0F0037FF4C2
:104E9000FDAE30460421FFF775FC00287FF4F6AE26
:104EA000CBE600F00F020132032142F420220B4630
:104EB0003046FFF767FC00287FF4E8AEBDE603ACA0
:104EC00041460E22434600943046FFF763FA0094B1
:104ED000304641460F224346FFF784FA4046D6E665
:104EE0002846FFF777FE00F0F00200F00F031032C3
:104EF000013343EA0232C2E610B5C36C84B003202A
:104F00005A688DF80C00DC7912020833084601A9B2
:104F100001928DF80D400293FFF788FE04B010BD9A
:104F200008B5FFF781FE806C08BD00BF08B5FFF72C
:104F30007BFEC36CD87903EB8000083008BD00BF4E
:104F400008B50AF0C9F800BF08B50AF0C5F800BFF7
:104F5000844641EA000313F0030349D1403A23D3C6
:104F60000B6803604B6843608B688360CB68C360E9
:104F70000B6903614B6943618B698361CB69C361D1
:104F80000B6A03624B6A43628B6A8362CB6AC362B9
:104F90000B6B03634B6B43638B6B8363CB6BC363A1
:104FA00040304031403ADBD230320BD30B680360E3
:104FB0004B6843608B688360CB68C36010301031EE
:104FC000103AF3D20C3205D351F8043B40F8043BBD
:104FD000043AF9D2043208D0D2071CBF11F8013BC1
:104FE00000F8013B01D30B8803806046704700BF87
:104FF000082A13D38B07B1D010F00303AED0C3F14E
:105000000403D21ADB071CBF11F8013B00F8013B77
:10501000A4D331F8023B20F8023B9FE7043AD9D3EE
:10502000013A11F8013B00F8013BF9D20B7803700B
:105030004B7843708B788370604670471A481B49E1
:10504000026800608A4219D0002103E0184B5B58C7
:10505000435004311748184B42189A42F6D3174A66
:1050600002E0002342F8043B154B9A42F9D305F0C5
:10507000D5FD0AF03FF808F0C9F9FEE7114E1248D5
:1050800030601248016821F07061016041020160E6
:105090000F4C182020600F490F4808600F48D0F8C7
:1050A00000D0406800470000F04F0020EFBEADDEAA
:1050B00038040108000000209C0500209C05002009
:1050C000982A002018100240090000000400014046
:1050D000140C0140000C01404434434400F0FF1F15
:1050E000FEE700000E4B1A783A2A15D15A88B2F51D
:1050F0005F7F11D11A79BE2A0ED193F87A2300204E
:10510000EF2A0BD113F8012B5040064A9342F9D1F4
:10511000B0FA80F04009704700207047704700BF28
:1051200000F801087CFB010870B50546441E14F820
:10513000011F61B1064E30460AF09CF80028F6D0F7
:10514000044B801B1844631B80F80831EFE770BDE7
:1051500076F40008D41200202DE9F047FFF7C2FFD3
:1051600010B90A2002F0CEFC3B4C3C494FF45F7270
:105170002046FFF7EDFE94F87833C422022B84BF5B
:10518000002384F8783394F87813354B02FB0141FF
:10519000184601F59671FFF7DBFE014690F8206096
:1051A000C57F002240F6C41002FB02F3193B734393
:1051B00003F6C41353436B4393FBF0F3294820F8E1
:1051C00012300132072AEDD191F82160B4F8D0E015
:1051D000B2B291F822C0B4F8D24002EB8205C6F117
:1051E00064075242FFB26D00CCF16408CEEB0404B8
:1051F00092B2002093B20FFA83FABAF1000F04DCE6
:10520000002B14BF3346012300E03B460AFB0AF99A
:105210005B4309FB0CF999FBF3F3434403FB0AF3EB
:105220004FF00A0993FBF9F32B441BB263434FF48D
:105230007A7993FBF9F3DFF83090734429F8103052
:1052400001300A320C2892B2D4D1087804F0A4FEBE
:10525000BDE8F04703F072B9D412002000F801084D
:10526000101200209C210020BC200020F8B52E4BFD
:105270003A221A704FF45F725A80BE221A71EF22DE
:1052800083F87A230022074683F87B231C4649B122
:1052900093F87803C42202FB0030244900F596708D
:1052A000FFF756FE00231A46E15C0133B3F55F7F3A
:1052B00082EA0102F8D11C4B002683F87B2305F01B
:1052C0001FFF342005F030FF194805F059FF04286E
:1052D00014D1174D05F17843A3F5FC332846E15866
:1052E00005F06CFF042805D0013605F015FF032EEC
:1052F000E5D103E00F4B04359D42EBD105F00CFFE7
:10530000032E02D0FFF7EEFE10B90A2002F0FAFBDE
:10531000FFF722FF37B1BDE8F8400F20142101222A
:1053200004F002BEF8BD00BFD4120020101200200D
:1053300000F801087CFB0108034B1B68184214BFEE
:1053400001200020704700BFB8050020024A136802
:1053500018431060704700BFB8050020024A136868
:1053600023EA000010607047B8050020034B9B68DB
:10537000184214BF01200020704700BFD412002043
:10538000024A936818439060704700BFD41200200F
:105390002DE9F7430446FFF7A5FE10B1002C00F0FD
:1053A00071816B46B94ABA4D10685168B94C03C354
:1053B0004FF45F720021284609F0C4FE0021C42288
:1053C000204609F0BFFE3A232B70082003236B719F
:1053D000FFF7D6FF1020FFF7D3FF0220FFF7D0FF23
:1053E0004FF40070FFF7CCFF4FF41673A5F8F030C0
:1053F000FA23A5F8F2302A23A5F8EE304FF4FA7319
:10540000A5F8F6302B2385F80531212385F80631E0
:1054100040F2DC53A5F8123140F24C43A5F81431A8
:1054200040F26C73A5F8163140F27E43A5F8D030F7
:1054300040F23A73A5F8D23040F27E5300264FF086
:105440000108142004224FF0200E4FF47A7185F8E1
:10545000F4E085F8040185F81021A5F8D41085F84A
:105460007863A5F8F860A5F8FA60A5F8FC6085F8FF
:10547000E26085F8E36085F8E460A5F8E660A5F8E9
:10548000E860A5F8EA6085F8ED6085F8EC8085F8BD
:10549000076185F8296185F82A6185F8186185F822
:1054A000196185F81A81A5F8D63040F2EA53A5F8BB
:1054B000DE104FF4E131C5F820114FF49641C5F8E4
:1054C000241140F6AC51A5F8D83040F2B4534FF057
:1054D0001E0CA98184F80BC0172184F80CC04FF072
:1054E0000B0C6175A17584F805C055214FF0080CAF
:1054F0002827A5F8DA30E17032232D2184F810C076
:105500004FF00E0CA5F8DC30A5F8E0306173237184
:10551000A071A17684F807C085F81C6185F81D612B
:1055200085F8286185F81B6185F8796326706770B6
:10553000A770E675A6732676E6736676607484F8BF
:1055400021300723A4F84030152384F82F30524B24
:1055500050202363514BE0764FF0640C5A20636374
:105560004F4B20724FF00A0984F81CC021754FF090
:10557000780CE07741214B48A36384F8129067725E
:1055800084F80AC084F81E8084F8201084F8236010
:1055900084F8246084F8256084F82260A4F844E04C
:1055A000A4F84A2026856685E68484F82C2084F8B1
:1055B0002D7084F82E7084F83C80FFF7B5FDC82369
:1055C00084F8AF304FF49663A4F8B03040F2D9338A
:1055D000A4F8B230234684F8686084F8696084F8DF
:1055E0006A7084F86B8084F86C6084F8AE904FF435
:1055F0007F72A4F86E204FF4FA62A4F8702040F293
:10560000DC52A4F872201DF806200136082E84F81A
:10561000742004F10804EAD1012283F8B42083F84D
:10562000B52083F8B620C82183F8BC206422A3F8F3
:10563000B810A3F8BE2014214FF4967283F8BA1064
:10564000A3F8C0201E21282283F8BB10A3F8C22093
:105650000023EA1810330021C02B1161F9D1002476
:10566000281900F596700B49C422C434FFF770FC6A
:10567000B4F5137FF4D10020014603B0BDE8F04338
:10568000FFF7F4BD03B0BDE8F08300BF54F4000899
:10569000D4120020101200209A99193FF6287C3F5E
:1056A0003D0A773F7FF400082DE9F041047890B07F
:1056B00000340646344818BF012405F0F5FB334B8F
:1056C00000250593324BAC4206930CBF2B4680233A
:1056D0000A934FF480730B934FF480630C934FF055
:1056E000200314BF4FF002084FF001080D93264825
:1056F0004FF4005305A90E930795CDF82080099526
:105700000F9505F049FC2048012105F070FC0127A8
:105710004FF460231F486946029300958DF80440BA
:105720008DF8057003958DF8108005F029FB194858
:105730000A213A46032305F074FB2CB11548317851
:105740000222032305F06DFB1248012105F045FB01
:105750001048012105F038FB0E4805F047FB0D48C5
:1057600005F049FB0028FAD10A4805F048FB094832
:1057700005F04AFB0028FAD10648012105F048FB54
:1057800010B0BDE8F08100BF080002404C24014089
:10579000BC05002000240140024B33F8100080B209
:1057A000704700BFBC0500202DE9FF41334B804608
:1057B0001B78002B3BD0002425462646274608228E
:1057C0000DEB02035320322100F04EFF9DF809201B
:1057D0009DF80830013403EB02231BB29DF80B2027
:1057E0001F449DF80A30E4B203EB02231BB21E44AF
:1057F0009DF80D209DF80C30202C03EB02231BB2EA
:105800001D449DF80F3003F07F0301D0002BD6D14B
:1058100097FBF4F796FBF4F695FBF4F5184BADF80F
:105820000070ADF80260ADF804501C701DE0062257
:1058300002AB5320322100F017FF9DF809209DF89C
:10584000083003EB0223ADF800309DF80B209DF8E3
:105850000A3003EB0223ADF802309DF80D209DF8CD
:105860000C3003EB0223ADF80430064B684641468A
:105870001A7805F02BF804B0BDE8F081C0050020CF
:10588000C105002000000020154B10B51B78044610
:105890002D21532008227BB100F0DCFE31210A22A9
:1058A000532000F0D7FE2C210C22532000F0D2FE12
:1058B00053203821902209E000F0CCFE31210A2249
:1058C000532000F0C7FE53202C210A2200F0C2FE14
:1058D00040F20912034B1A800CB1034B1C7010BD2F
:1058E000C0050020320000200000002037B5114B19
:1058F0000C461A68104B00219A4205468DF8071095
:1059000001D1002013E0532001220DF1070300F024
:10591000ABFE0028F5D09DF80730E52BF1D12A78B1
:10592000064B01201A70064B2360064B636003B0E0
:1059300030BD00BF38000020001BB700C0050020AC
:1059400089580008A95700081FB504466B46022174
:105950000622182000F088FE9DF800309DF80120F6
:105960009B0803EB0223ADF808309DF802309DF848
:1059700003209B0803EB0223ADF80A309DF80430A6
:105980009DF805209B0803EB0223ADF80C30044B77
:1059900002A821461A7804F099FF04B010BD00BF98
:1059A0000100002010B504460F210822182000F045
:1059B00051FE0E221820102100F04CFE034B4FF434
:1059C00080521A800CB1024B1C7010BD32000020B6
:1059D0000100002037B5002402AB054603F8014D55
:1059E00018202146012200F03FFE50B19DF80730FB
:1059F000FB2B11BF2046044B01202B6004BF034B3F
:105A00006B6003B030BD00BFA559000849590008BC
:105A1000F0B5324B324C1B88628925899A1A6A4349
:105A2000B4F91250D313B4F91420ED021A4495FBC3
:105A3000F2F20A261A44E2615643A2F57A6202FBA8
:105A400002F3B4F904C0B4F90250B4F90EE05543BE
:105A500002FB0CF2B4F90CC01B130EFB03FE03FB9C
:105A60000CF31B1403EB62334CF250320233B4F8E4
:105A700006C09B1003F500430CFB03F3B4F9207040
:105A8000ED12B4F900404FEAD33C05EBEE2E154B76
:105A90000EEB84041D68BC400234A5EBA4043A411B
:105AA00062434EBFB2FBFCF35400B4FBFCF340F680
:105AB000DE3448BF5B001A12524362430A4C083678
:105AC0005C43241404EB224202F6CF62361103EB4E
:105AD000221300B1036001B10E60F0BDF205002099
:105AE000C8050020EC05002043E3FFFF114B07B57C
:105AF0001B781BB9104A13880133138001ABF621C0
:105B00000322772000F0B0FD9DF805309DF80420B9
:105B10001B0243EA02439DF806201343074AB2F9E9
:105B20002020C2F10802D340054A136003B05DF89B
:105B300004FB00BFC2050020C4050020C8050020EA
:105B4000EC0500200C4B07B51B781BB90B4A1388DA
:105B50000133138001ABF6210222772000F084FD8F
:105B60009DF804209DF8053043EA0223044A13807F
:105B700003B05DF804FB00BFC2050020C40500208F
:105B8000F2050020064B002193F82020054B9201DE
:105B9000343219707720F42102F0FC0200F05ABD73
:105BA000C8050020C2050020034B00221A70772090
:105BB000F4212E2200F04EBDC205002010B54FF496
:105BC000804005F073FA0128044605D14FF4804067
:105BD00005F07AFA014B1C7010BD00BFC205002011
:105BE0002DE9F0476B4B8CB01A686B4B05469A4217
:105BF00000F0CB80DFF8BC9199F80070002F40F0E6
:105C0000C580DFF8B481022610234FF4005A4046C5
:105C100002A94FF480448DF80B608DF80A30ADF87E
:105C200008A000F0CBF80423404602A98DF80A3002
:105C3000ADF8084000F0C2F80E213046C8F810A0B8
:105C400000F0EEF80126082304A804948DF815301E
:105C50008DF814708DF8166005F0ECF928238DF896
:105C60000C3003A80F238DF80D308DF80E308DF811
:105C70000F6005F04FF8142001F0ADFE32460DF133
:105C800007037720D02100F0EFFC9DF80730434C4C
:105C90000322552BE375228474D1D12132460DF1B4
:105CA0000703772000F0E0FC9DF80730772003F031
:105CB0000F021B0922766376162206ABAA2100F09A
:105CC000D3FC9DF818209DF81930374643EA02238B
:105CD00023809DF81A209DF81B3043EA022363803D
:105CE0009DF81C209DF81D3043EA0223A3809DF8F7
:105CF0001E209DF81F3043EA0223E3809DF82020F8
:105D00009DF8213043EA022323819DF822209DF84B
:105D1000233043EA022363819DF824209DF8253037
:105D200043EA0223A3819DF826209DF8273043EA09
:105D30000223E3819DF828209DF8293043EA0223BD
:105D400023829DF82A209DF82B3043EA02236382A8
:105D50009DF82C209DF82D3043EA0223A38241F2C6
:105D6000707389F800602B8046F678136B800C4BBB
:105D70006B600C4BAB600C4BEB600C4B2B610C4B1A
:105D80006B6103E0C8F814A000E0002738460CB0AF
:105D9000BDE8F08738000020001BB700C8050020D0
:105DA000A95B0008455B0008855B0008ED5A000808
:105DB000115A0008F005002000100140F0B5B1F8BC
:105DC00000E000234EFA03F2D50725D58E784FEA7E
:105DD000D30CF40648BFCC7806F00F0203F0070797
:105DE00048BF2243BF0050F82C500F24BC4025EA86
:105DF0000404BA402243282E40F82C2005D1C46860
:105E000001229A4024EA020205E0482E04D1C46827
:105E100001229A402243C2600133102BD2D1F0BD3F
:105E200001F0030301F0FC0101F1804101F5803133
:105E300010B59B008C680F229A4024EA02028A6007
:105E40008A68984002438A6010BD000037B500247C
:105E500002AB054603F8014D1E200A21012200F085
:105E600003FC50B19DF80730482B03D125B1044BFA
:105E70001D7001E0204600E0012003B030BD00BFEE
:105E80001000002030B585B00622054603216B4680
:105E90001E2000F0E9FB9DF801309DF800001A4C2F
:105EA00043EA002000B2FDF735FE2168FDF786FECB
:105EB000FEF74AF89DF80330ADF808009DF802009F
:105EC00043EA002000B2FDF725FEA168FDF776FE4B
:105ED000FEF73AF89DF80530ADF80C009DF8040087
:105EE00043EA002000B2FDF715FE6168FDF766FE8B
:105EF000FEF72AF8054BADF80A00294602A81A78E1
:105F000004F0E4FC05B030BD0400002010000020C7
:105F10002DE9FF41634B644A1B6893420DD14FF456
:105F20008053ADF8043002238DF8073004238DF838
:105F300006305E480DEB030108E05D4A934207D14D
:105F400004A94FF480435B4821F80C3DFFF736FF6E
:105F5000322001F040FD002111221E2000F07AFBCA
:105F6000012160221E2000F075FB642001F033FD4A
:105F7000002402A8FFF786FF274626460A250221AD
:105F800001221E2000F066FB322001F024FD02A851
:105F9000FFF778FFBDF90820BDF90A1014448A42C2
:105FA000A8BF0A46BDF90C300F4493421E44A8BF57
:105FB000134613F5805F09DD3C4A013DD36883F049
:105FC0002003D360DBD14FF0010801E04FF000085F
:105FD0001E200021122200F03DFB0A250221012291
:105FE0001E2000F037FB322001F0F5FC02A8FFF77D
:105FF00049FFBDF90820BDF90A10A41A8A42A8BFBA
:106000000A46BDF90C307F1A9342A6EB0306A8BFDF
:10601000134613F5805F07DD244A013DD36883F002
:106020002003D360DAD101E04FF000082046FDF7ED
:1060300071FD01462048FDF775FE204D20F000401F
:1060400028603846FDF766FD01461B48FDF76AFEED
:1060500020F0004068603046FDF75CFD01461848BE
:10606000FDF760FE20F00040A860002170221E2095
:1060700000F0F0FA012120221E2000F0EBFA1E2091
:106080000221002200F0E6FA642001F0A4FCB8F13D
:10609000000F04D14FF07E532B606B60AB6004B0F7
:1060A000BDE8F0813800002000127A00000C0140A9
:1060B000001BB7000010014000406F4604000020A4
:1060C00001C05E462DE9F047974C2068878ABFB231
:1060D000FBB213F0010637D00388012123F40063DB
:1060E0001B041B0C038005F09BF9904B00221A70D7
:1060F0008F4A1D4611788F4AC9B18F4B197819B94B
:106100008E490978FF2912D1012119708C4B206822
:106110001B78022B01BF21680B889BB243F40063FC
:1061200008BF0B801178012205F094F923E1117862
:106130002068002205F08EF9804B1B78FF2B00F0C1
:106140001A81FF232B7016E103F0020202F0FF0117
:10615000002A3CD0BFF35F8F794B1D78EDB2012D43
:1061600016D1734A12789AB1734A127882B13146C5
:1061700005F056F9BFF35F8F20682946038B05F0C1
:1061800043F9704B20681D704FF480612A46F0E09F
:10619000028BBFF35F8F1A78022A09D1644A127802
:1061A00032B1654A12781AB1002105F039F9DCE004
:1061B0001B78032B07D15E4B1B7823B15E4B1B78FA
:1061C000002B40F0D3804FF480610122D1E003F036
:1061D000040202F0FF08002A68D0554BDFF86491F2
:1061E0001A78012689F80060534B002A47D01A78A4
:1061F000002A44D0524B4D4D1B78534F022B23D9CC
:1062000005F00EF92B7820689A194FFA83F8D7F821
:1062100000A02A7005F01BF931460AF80800206832
:1062200005F0F2F82B7820689A193F682A7089F8EF
:1062300000605DB205F00BF94FF48061785532468D
:10624000206805F0F9F82CE0314605F0DDF82B78F0
:1062500020685A1C5EB2D7F800802A7005F0F7F863
:106260002B7808F806005A1C20685EB23F682A7036
:1062700005F0EDF82B78B85501332B7011E01B7841
:10628000012113B9314B1B7833B105F0BDF8274A12
:1062900013780133137004E005F0AAF8264B0122AD
:1062A0001A7022681388D805FCD464E003F0400318
:1062B00003F0FF091D4D224EFBB1234BD3F8009094
:1062C0002B785A1C5FB22A7005F0C1F895F900309E
:1062D00009F80700327803339A4205D120684FF459
:1062E0008061424605F0A8F82B7831785AB2914285
:1062F00041D10E4A013313703DE039063BD52B786E
:1063000059B24A1C26D0124A013312682B70515CD4
:1063100005F09BF8327895F900309A422BD120682D
:106320004FF480614A4624E00C060020F905002065
:10633000080600201206002000060020F7050020B5
:10634000F805002010060020FC050020F6050020BE
:1063500004060020144B85F80090197805F075F8B4
:10636000124B1B780BB933782BB920684FF480613E
:10637000002205F061F80E4B0E4A1B7892F90020BE
:1063800001339A420DD10C4B00221A700B4B1B7833
:1063900023B120684FF4407105F04EF8084B0022FD
:1063A0001A70BDE8F08700BFF7050020080600203E
:1063B000F8050020F9050020000600201006002046
:1063C00011060020FFF77EBEFFF77CBE2DE9F041ED
:1063D0008046484C86B04FF440651C232046022777
:1063E00001A9454E8DF80630ADF804508DF80770C0
:1063F000FFF7E4FC1423204602A9C6F80080ADF89C
:1064000008508DF80B708DF80A30FFF7D7FC256126
:106410000824384DAB685B0503D40A2001F0D0FA9C
:10642000F7E74FF480670A206F6101F0C9FA013C79
:106430002F610A2001F0C4FA14F0FF04E9D14FF4EF
:106440000068C5F814800A2001F0BAFA6F610A20CA
:1064500001F0B6FA2F610A2001F0B2FA4FF440635E
:10646000C5F81080ADF80830022302A98DF80B3072
:1064700028461C238DF80A30FFF7A0FC306804F092
:1064800019FF02A804F09AFF224630684FF44071C9
:1064900004F0D2FF4BF6FF73ADF80E304FF480439B
:1064A000ADF81430154B306801210293ADF80C4063
:1064B00004F092FF02A9306804F016FF4FF4A060C8
:1064C00004F01EFC22238DF80030684601238DF86D
:1064D00003308DF801408DF8024004F01BFC2123AD
:1064E00068468DF800308DF8014004F013FC06B0CA
:1064F000BDE8F081000C01400C060020801A060067
:1065000037B5224C2068838A9BB20193019B13F418
:10651000706F1EBF1E4B01221A70019B13F4E06FB7
:1065200028D04FF480610022038B04F085FF019B8B
:1065300098051FD42068038899051BD4058805F4A5
:106540008075ADB265B10388DA05FCD4012104F091
:106550005BFF206803889B05FCD4FFF737FF09E049
:10656000012104F051FF094B4FF4407118682A468D
:1065700004F062FF2268938A23F470631B041B0CEF
:106580009382044B00221A7003B030BD0C06002029
:106590000106002011060020FFF7B2BFFFF7B0BFD1
:1065A00070B54000204CC0B220702048204C0170D3
:1065B000204901200870002121701F4C23601F4CCE
:1065C00023601F4B1F4C1A701F4A204B107020680D
:1065D00019708188164611F4007F1D460ED103887C
:1065E000DA0505D403889B05FCD4012104F000FFE3
:1065F00020684FF44071012204F01EFF47F230532F
:10660000327812B1013BFBD100E04BB9104A20684F
:10661000138801339BB21380FFF7D8FE002070BDB2
:10662000287880F0010070BD12060020F7050020D8
:1066300008060020F605002004060020FC050020C6
:10664000F80500200C06002011060020010600209D
:10665000F405002007B502AB03F8012D0122FFF776
:106660009FFF03B05DF804FB70B54000204CC0B242
:1066700020702048204C017020480021017001202A
:1066800020701F4C23601F4C23601F4B1F4C1A703F
:106690001F4A204B1070206819708188164611F42B
:1066A000007F1D460ED10388DA0505D403889B05BB
:1066B000FCD4012104F09CFE20684FF440710122BB
:1066C00004F0BAFE47F23053327812B1013BFBD1ED
:1066D00000E04BB9104A2068138801339BB2138045
:1066E000FFF774FE002070BD287880F0010070BDB7
:1066F00012060020F705002008060020F6050020FD
:10670000FC05002004060020F80500200C060020EF
:106710001106002001060020F40500201FB50446E4
:106720006B46A82106226820FFF79EFF9DF80130E6
:106730009DF80020042143EA022212B292FBF1F2FA
:106740009DF80230ADF808209DF8032002A842EA27
:10675000032212B292FBF1F29DF80430ADF80A2048
:106760009DF8052042EA03231BB293FBF1F3ADF839
:106770000C30034B21461A7804F0A8F804B010BD81
:106780001100002010B50446642001F024F96820AF
:106790002321F022FFF75EFF10B9032001F0B2F9C8
:1067A000052001F018F9064B68201A78202142F0E4
:1067B0000F02FFF74FFF0CB1024B1C7010BD00BF62
:1067C000130600201100002037B5054619200C469D
:1067D00001F001F90DF1070368200F210122FFF7F5
:1067E00043FF9DF80730D32B15D10C4B4E2C2B605B
:1067F0000B4B6B600B4BEB600B4B06D05D2C08D04A
:10680000362C14BF0022402200E080221A700120A2
:1068100002E0C022FAE7002003B030BD856700081F
:106820001D670008DDE9A731130600201FB50446E7
:106830006B46012106221C20FFF716FF9DF8013050
:106840009DF80020042143EA022242F38D0292FBCC
:10685000F1F29DF80230ADF808209DF8032002A85F
:1068600042EA032242F38D0292FBF1F29DF80430DA
:10687000ADF80A209DF8052042EA032343F38D0377
:1068800093FBF1F3ADF80C30034B21461A7804F07A
:106890001DF804B010BD00BF1200002037B505463A
:1068A0002023ADF8043004230DEB030102241C481F
:1068B0008DF806308DF80740FFF780FA2A21002274
:1068C0001C20FFF7C7FE0E2122461C20FFF7C2FE48
:1068D0000F2103221C20FFF7BDFE2B2112221C20BA
:1068E000FFF7B8FE2C2122461C20FFF7B3FE2D2116
:1068F00001221C20FFF7AEFE2E2100221C20FFF7F4
:10690000A9FE05221C202A21FFF7A4FE054B4FF407
:1069100080721A800DB1044B1D7003B030BD00BFF2
:1069200000080140320000201200002013B50023AF
:106930008DF807300F4B04461A680F4B9A4201D16D
:10694000002015E01C200D2101220DF10703FFF7A7
:106950008BFE0028F4D09DF807302A2B01D01A2B8B
:10696000EED1064A01202260054A6260054A137092
:1069700002B010BD38000020001BB7009D68000861
:106980002D6800081406002013B50222044601AB4E
:106990001B216820FFF768FE9DF804209DF8053054
:1069A00043EA022303F54E534FF48C72103393FBEA
:1069B000F2F32333238002B010BD00001FB504465C
:1069C0006B461D2106226820FFF74EFE9DF8013020
:1069D0009DF80020042143EA022212B292FBF1F258
:1069E0009DF80230ADF808209DF8032002A842EA85
:1069F000032212B292FBF1F29DF80430ADF80A20A6
:106A00009DF8052042EA03231BB293FBF1F3ADF896
:106A10000C30034B21461A7803F058FF04B010BD28
:106A20001400002010B50446192000F0D4FF68209F
:106A300015210022FFF70EFE10B9032001F062F8C5
:106A40000D4B16211A78682042F01802FFF702FE5B
:106A5000172100226820FFF7FDFD3D21012268205B
:106A6000FFF7F8FD68203E210122FFF7F3FD0CB18E
:106A7000024B1C7010BD00BF13000020140000204A
:106A800038B5054619200C4600F0A5FF68201521F1
:106A90000022FFF7DFFD18B3124B622C2B60124B64
:106AA0006B60124BAB60124BEB60124B0FD004D8F3
:106AB0000A2C12D0142C0ED00BE0BC2C04D0B4F550
:106AC000807F06D1002209E00120187038BD022223
:106AD00004E0032202E0042200E005221A700120F3
:106AE00038BD00BF256A0008BD6900088969000833
:106AF0001844923113000020064B1A78064B12B14D
:106B00004FF4FF6201E04FF480521A8008B1034B4A
:106B10001870704715060020320000201500002074
:106B200013B54FF40053ADF8043002238DF807304D
:106B300004238DF806301D4B1D4A1B680446934202
:106B400001D11C4803E01C4A934203D11B4801A910
:106B5000FFF734F96B2180226820FFF77BFD0520C9
:106B600000F039FF192100226820FFF773FD6B2127
:106B700003226820FFF76EFD372102226820FFF70D
:106B800069FD0F4B1A211A786820FFF763FD1B215E
:106B900018226820FFF75EFD68201C211022FFF7F5
:106BA00059FD0CB1074B1C7002B010BD380000201D
:106BB00000127A00000C0140001BB70000100140D9
:106BC00016000020170000201FB504466B463B212D
:106BD00006226820FFF748FD9DF800209DF801304F
:106BE00002A843EA0223ADF808309DF802209DF880
:106BF0000330214643EA0223ADF80A309DF8042011
:106C00009DF8053043EA0223ADF80C30024B1A78A8
:106C100003F05CFE04B010BD150000201FB5044653
:106C20006B46432106226820FFF71EFD9DF80130C8
:106C30009DF80020042143EA022212B292FBF1F2F5
:106C40009DF80230ADF808209DF8032002A842EA22
:106C5000032212B292FBF1F29DF80430ADF80A2043
:106C60009DF8052042EA03231BB293FBF1F3ADF834
:106C70000C30034B21461A7803F028FE04B010BDF7
:106C8000170000202DE9FF41074623200D4614463A
:106C90001E4600F0A0FE6820752101220DF10703B9
:106CA000FFF7E2FC002869D09DF80780B8F1680F73
:106CB00063D106210A4602AB4046FFF7D5FC9DF89A
:106CC0000D1001F001029DF80B1001F001014B00C5
:106CD00043EA82019DF8092002F001030B430AD028
:106CE0005BB2012B01D1012202E0022B0FD1002265
:106CF000244B1A7012E00DF1070340460C210122CB
:106D0000FFF7B2FC9DF8073013F00F0303D1052005
:106D100000F0F8FE02E0042BE9D1E4E71A4B3B60F7
:106D20001A4B7B601A4B2B601A4B6B601A4BEB6053
:106D300016B1144B1B783370142C184B15D004D893
:106D4000052C16D00A2C12D00DE0BC2C08D0B4F5BE
:106D5000807F03D0622C06D102220BE0002209E0E2
:106D6000012018700AE0032204E0042202E0052258
:106D700000E006221A70012000E0002004B0BDE807
:106D8000F08100BF15060020F96A0008C96B0008F1
:106D9000216B00081D6C0008184492311600002079
:106DA0002DE9F74F4C4C4D4A638916682289A6EBB2
:106DB000032585FB0223B4F80680019085FB088932
:106DC000A08800270604D009628840EA4360801941
:106DD0004FEAC2364FEA18228C4642EA09624FEA6D
:106DE000E31179419219A6894FF000074FEA292350
:106DF0007B4185FB0667F40D44EA472414F5FA6AE3
:106E00004FEAE75545F1000BBAF5FA6F7BF1000642
:106E100046DAA4FB048904FB05F64FF0050E09EBE6
:106E20004609A8FB0E670EFB09775FEA67094FEA80
:106E30003608B0EB08004FEA960848EA8778284EF3
:106E400061EB09014FEAA709B2EB080263EB090302
:106E50004FF0FF37B2457BEB070621DA40F6AC5620
:106E60000027A4197D4104FB05F6A4FB044505EBAE
:106E70004605C4F100086FF0060606FB0588A4FB72
:106E80000667801947444FF00B087941A4FB086757
:106E900008FB05777F104FEA3606921B63EB07036A
:106EA000104C2668A6FB024506FB0355620D42EA1C
:106EB000C522101A4FEA6553019A63EB0101C30B17
:106EC00043EA414302B11360BCF1000F01D0CCF89A
:106ED00000A003B0BDE8F08F200600201C060020B3
:106EE00024FAFFFF1806002007B5002101AB03229A
:106EF0007720FFF7B9FB9DF805309DF804001B02D1
:106F000043EA00439DF80600184303B05DF804FB14
:106F100008B5FFF7E9FF014B186008BD180600200F
:106F200008B5FFF7E1FF014B186008BD1C06002003
:106F3000772048210122FFF78DBB772058210122BD
:106F4000FFF788BB454B73B51A68454B05469A4217
:106F50000FD0444C02234FF400568DF807302046E2
:106F6000102301A9ADF804608DF80630FEF726FF66
:106F700066610A2000F02FFD7720A02101220DF18B
:106F80000303FFF771FB002865D01E210122772043
:106F9000FFF760FB4FF42F6000F012FD0026A6F112
:106FA00060010024022201AB7720C9B28DF80440B1
:106FB0008DF80540FFF758FB9DF804209DF805303B
:106FC00043EA0223284AB3520236102EE7D1214663
:106FD000D089012300F00F0600F47F40D08132F801
:106FE00011400131002C18BF00230829F7D18BBBB9
:106FF000194611F0010F4FEA610404D012F8144051
:107000006340082404E032F8144083EA1423F8E7CC
:1070100013F4004F18BF83F4C053013C4FEA4303FD
:10702000F6D101311029E4D1C3F3033330439E423A
:10703000D0810FD142F210732B806B800B4B01205B
:107040006B600B4BAB600B4BEB600B4B2B610B4B3B
:107050006B6100E0002002B070BD00BF380000206E
:10706000001BB70000100140200600203B6F000805
:10707000216F0008316F0008116F0008A16D000832
:10708000074BA1F57A7153F820301A689B88594351
:107090004FF47A7391FBF3F189B21180704700BF0E
:1070A00034070020024B53F820301B6819807047CA
:1070B000340700202DE9F04F8E46484F05017C59DA
:1070C00087B007EB050A11462046904672460193A9
:1070D00000F090FDDAF808100AF10802ADF8081087
:1070E0001821DAF804008DF80A104FF0020B02A9FB
:1070F00000928DF80BB0FEF761FE009A02A892F89C
:1071000004A004F018FD7022019B354EADF8082054
:107110000122ADF80A20ADF80E3000224FF4807342
:1071200006EB0509ADF80C20ADF810B0ADF8143041
:10713000BAF10C0F2BD8DFE80AF0072A2A2A102A06
:107140002A2A192A2A2A2200204602A904F0ECFB46
:107150002046082104F024FD19E0204602A904F08D
:1071600027FC2046082104F023FD10E0204602A958
:1071700004F062FC2046082104F024FD07E02046CC
:1071800002A904F09BFC2046082104F023FD2F44B3
:10719000BB7B1BB12046012104F0EBFC2046012102
:1071A00004F0DBFCBAF10C0F10D8DFE80AF0070F8F
:1071B0000F0F090F0F0F0B0F0F0F0D00343404E0EA
:1071C000383402E03C3400E04034745148463544E1
:1071D000A5F8048007B0BDE8F08F00BFE4F4000814
:1071E000440600201B4A1C48138810B503801180F8
:1071F000C91A40F68C2389B29942184B02D9002251
:107200001A7010BD40F2DA50A1F2EF2292B282421F
:1072100019D81A78072A16D81148032A20F812100C
:1072200010480AD8104C24888C423FBF012101FA33
:1072300002F201780A4338BF027002780F2A02BFB7
:10724000084A002111701A7801321A70074B002287
:107250001A8010BD2A07002026070020840700207E
:107260003006002040060020180000208A0E002072
:107270007FB504460E46154601A804F066FC0123BE
:10728000ADF808302046002301A9ADF80460ADF840
:107290000650ADF80A30ADF80C3004F0D5FC04B05F
:1072A00070BD000038B5124B00010344DC79114A6F
:1072B00054B919810121D9711318197B1058BDE8EF
:1072C00038400222FFF7D4BF1D8959810A4C491B5F
:1072D0009D7989B224F8151000249981DC71131866
:1072E000197B10582246FFF7C3FF044B1C8038BDA2
:1072F00044060020E4F40008300600208A0E002036
:107300002DE9F34707468946DFF85480060106EB6E
:107310000804A368114DADF8043035442823AA7140
:107320008DF806306068022301A98DF80730FEF75A
:1073300045FD56F80800217B0022FFF799FF204603
:107340004FF6FF71012200F079FC204639464A468B
:1073500000F030FC284602B0BDE8F087440600206B
:10736000E4F40008F8B5028A454B04461A80837994
:107370004278002B0CBF0023022302B10133414AA3
:1073800052F823506E1E0D3516F8012FFF2A02F019
:107390000F0002F0F00309D13B4A3C4B1A602289EE
:1073A000B2F5FA7F6AD93A4A1A6067E0A17811B15A
:1073B000811E01295FD9E17811B1011F03295AD932
:1073C000E17909B1814256D012F0300F03D0227812
:1073D000002A08BF0023227932B1A27922B9A0F194
:1073E0000802012A98BF802362792AB1A2791AB9CA
:1073F000021F032A98BF8023DA0607D500222549F9
:10740000FFF77EFF244B08221A7034E09F0608D550
:10741000214F22493A78FFF773FF3B7801333B70E5
:1074200029E05A0615D51E4A23891778B3F5FA7F45
:1074300007F1010E82F800E01A4A8CBF08210121F1
:107440004A43B2FBF3F2A38992B2FFF733FE164B25
:107450000FE01B060FD5154B01211F787A1C1A70FF
:107460006289104B93FBF2F2E38992B2FFF722FE9E
:107470000F4B43F82700AE4286D18DE70020F8BDC0
:1074800018000020A0F40008A570000830070020B4
:1074900081700008E57100082C070020A572000823
:1074A0002807002040420F00340700202407002056
:1074B00064070020014B33F81000704730060020AD
:1074C000054BDB7F2BB190F8303013B1084600F04C
:1074D000D3BE03681B681847900F002038B50546D7
:1074E0000C4614F8011B19B12846FFF7E9FFF8E72D
:1074F00038BD016AC369994206D097BFC268CB1AEA
:107500008818C31AD8B2704700207047436A82694E
:10751000D154436A01690133B3FBF1F201FB123329
:10752000436270477047426A806A131A5842584152
:10753000704710B50446FFF7DCFF50B1E36962699C
:10754000D05CE268C0B2013A934234BF01330023F9
:10755000E36110BD436B5A689B6892681A4290F8C9
:1075600048220CBF012300230AB11846704783F05C
:10757000010070470129D0F8383103D190F8482232
:107580004AB904E039B990F84822012A03D15A686F
:107590009B68136170475A689B6853617047034644
:1075A00007B59B684068ADF8043048238DF8063075
:1075B00001A902238DF80730FEF700FC03B05DF847
:1075C00004FB000070B51546084A01EB4101B2FB0F
:1075D000F1F106461C4689B2032200F02FFB30462B
:1075E00029462246BDE8704000F0E4BAC0C62D002E
:1075F000034607B59B684068ADF8043010238DF84A
:10760000063001A902238DF80730FEF7D7FB03B03F
:107610005DF804FB2DE9F04107461D4C1D4BA060B1
:107620001D4823600323237104F1380200F1100385
:1076300000250126C4F8383162614FF4807304F5E7
:107640009E72E360A261236184F848126063256240
:10765000E561A562656284F83F5284F83E6284F871
:107660003C5284F84062FFF79AFFD4F83801FFF7E4
:10767000BFFF31462046FFF77DFF322000F0ABF917
:10768000606B39462A46BDE8F041044BFFF79ABFCC
:1076900050160020D0F4000824F50008FD770008FB
:1076A000C268036A013A93422CBF0023013303628C
:1076B000704710B50446FFF74DFF01281FBF002398
:1076C00084F83E32A4F8443204231FBF84F84032C9
:1076D000082384F8423201230CBF84F8400284F866
:1076E0003D3210BD012310B580F840320446FFF74B
:1076F00031FF012811D1002384F83C3294F8443240
:107700006169226AA4F84432DBB284F83E028B54E9
:107710002046BDE81040FFF7C3BF10BD032310B5DE
:1077200080F840320446FFF715FF94F83D3220B14F
:10773000B4F844221A43A4F844225B0084F83D3292
:1077400094F84232013BDBB284F842322BB9012378
:1077500084F83C32022384F8403210BD90F8403265
:10776000013BDBB280F840325BB990F83E320BB19E
:10777000FFF79FBF90F83C320BB1FFF7B3BFFFF7A5
:10778000CDBF704710B590F83F220446CAB9836A4E
:10779000416A994231D08069591CA162C35C206959
:1077A000DBB25B0043F40073A4F846320A23814243
:1077B00084F843324FF0010328BFA26284F84132BB
:1077C00019E090F84132013BDBB280F84132A3B9B5
:1077D000B0F846124B08A0F8463201F00101FFF75D
:1077E000C9FE032384F8413294F84332013BDBB2F3
:1077F00084F843320BB984F83F3210BD10B5064C03
:107800004FF4137303FB00442046FFF7BBFF2046F1
:10781000BDE81040FFF7A2BF50160020F8B504469F
:107820000D461646114B9B89EEB115B12F780135E7
:1078300000E0FF270D48022103F0B6FF0028F9D031
:107840000A48394603F0ABFF0848012103F0ACFFBA
:107850000028F9D0054803F0A4FFC0B20CB1207095
:107860000134013EE0E70120F8BD00BF00380040D0
:107870002DE9F0474FF4804088B0012103F0DAFE93
:107880004FF48040012103F0EDFE344D18238DF8B4
:1078900002304FF42043ADF80030284603236946F8
:1078A0004FF004082E4F8DF80330FEF787FA4FF49F
:1078B000804328466946ADF800304FF480564FF0BB
:1078C000100A8DF80280FEF779FA69462846ADF86D
:1078D00000608DF802A0FEF771FA384603F002FF4F
:1078E0004FF48273ADF80E304FF40073ADF81630DC
:1078F00007230024ADF81C304FF00109022338465D
:1079000003A9ADF81230ADF80C40ADF81040ADF859
:107910001A40ADF81490ADF818A003F015FF3846E2
:10792000494603F030FF9F238DF804308DF8054061
:107930008DF806408DF8074002A86E610DEB080136
:107940004246FFF76BFF2E619DF80900A0F1EF039F
:107950005842584108B0BDE8F08700BF000C014014
:107960000038004008B504F08DFB08B104F0D2FBEC
:10797000024A13680133136008BD00BF8807002066
:1079800010B5094A094B11689B6812689142F8D1F9
:10799000074C4FF47A70226824684243D31AB3FB31
:1079A000F4F300FB013010BD8807002010E000E078
:1079B0008C070020014B1868704700BF8807002023
:1079C00038B50446FFF7DCFF0546FFF7D9FF401B3B
:1079D000A042FAD338BD10B504462CB14FF47A70EA
:1079E000FFF7EEFF013CF8E710BD000030B5374B64
:1079F0008BB001AC0FCB84E80F0003F035F93448AD
:107A0000012103F017FE44F61D20012103F006FEBC
:107A10000120014603F0F6FD03F05CFE4FF6FF7314
:107A20002C4CADF800302C48002369468DF802300C
:107A3000FEF7C4F920466946FEF7C0F927486946B3
:107A4000FEF7BCF9264A06AD536843F00073536055
:107A5000102363612023636102AC224B1A68224B1E
:107A60009A4204D1A378142B04BF1023A37054F8B6
:107A7000040C21460834FEF7A1F9AC42EDD105A86B
:107A800003F074FD194A059BB3FBF2F3184A136027
:107A9000184B4FF47A721B68B3FBF2F3013BB3F15E
:107AA000807F09D2144AF0215360144B83F82310CD
:107AB00000239360072313601148FEF787FCFFF74C
:107AC000D7FE6420FFF787FF0BB030BD5CF40008E1
:107AD00007004000000C0140000801400010014078
:107AE0000000014038000020001BB70040420F009A
:107AF0008C0700203C00002010E000E000ED00E0DA
:107B00000058004040F2DB14604308B50A4B2022C5
:107B10001A6110225A61841E074B2046DA6882F0EF
:107B20002002DA60DA6882F01002DA60FFF753FFB1
:107B30001920FFF750FFEFE7000C014070470000ED
:107B400070B500250D4EECB256F824600135864222
:107B5000F8D1A400E4B20025094EE8B2365C013544
:107B60008E42F9D12044C0B20F289FBF054C04EBD0
:107B700000100171027398BF836070BDC4F50008E6
:107B8000D4F50008E81A00200C2912D8DFE801F02B
:107B900007111111091111110B1111110D00022101
:107BA00004E0042102E0082100E01021012203F09A
:107BB000EEBF704738B504460D461346217B00687A
:107BC0002A46FFF7BDFF2068217BBDE83840FFF75C
:107BD000DBBF07B500238DF804008DF8053001A840
:107BE00001238DF806308DF8073003F093F803B0C9
:107BF0005DF804FB7FB51646054601A80C4603F068
:107C000091FF0C4B013C03FB06F20B4B28461B6813
:107C100001A9B3FBF2F20023013AADF80840ADF838
:107C20000420ADF80A30ADF8063003F033FE04B09E
:107C300070BD00BF40420F003C00002010B504465C
:107C40000068FFF7D7FF2068012103F086FF607B03
:107C5000BDE81040FFF7BDBF10B500220A4CD3B2FB
:107C600054F8234001328442F8D19B00DBB2002259
:107C7000064CD0B2245C01328C42F9D10344044852
:107C8000DBB200EB031010BDC4F50008D4F500080A
:107C9000E81A002070B50221044604F07EF801289D
:107CA00020460BD1022104F083F820460021FFF783
:107CB000D3FF0546204604F063F834E0042104F0C5
:107CC0006CF8012820460BD1042104F071F82046FD
:107CD0000421FFF7C1FF0546204604F054F822E0D6
:107CE000082104F05AF8012820460BD1082104F09D
:107CF0005FF820460821FFF7AFFF0546204604F055
:107D000045F810E0102104F048F8012812D120466F
:107D1000102104F04DF820460C21FFF79DFF054689
:107D2000204604F036F8AB6801461BB1287BBDE85D
:107D30007040184770BD00000148FFF7ABBF00BF9F
:107D4000002C01404FF08040FFF7A4BF0148FFF72F
:107D5000A1BF00BF000400400148FFF79BBF00BF68
:107D600000080040436B13B15B68406C01E0036A9C
:107D7000C069181A18BF01207047836B13B190F8BF
:107D800048007047836A406A1B1A5842584170473E
:107D900030B5002385B0ADF80A30ADF80430ADF849
:107DA0000630ADF80830ADF80C3003790446DA0738
:107DB00044BF0422ADF80A209B0748BFBDF80A3033
:107DC0000D46009148BF43F00803C06C694648BFA8
:107DD000ADF80A3003F0F0FFA56005B030BD0346F2
:107DE0009A6A9969806B1144C160596A914297BF40
:107DF00019698A1A8A1A426096BF002242609A6202
:107E00004FF0000288BF996283F84820012103F0F7
:107E1000EEB8416B0346C26810B5406941B1596C78
:107E2000541A013918BF0A46005D5A64C0B210BD29
:107E3000196A405C0131B1FBF2F402FB1412C0B2CA
:107E40001A6210BD10B5426A8469A154426A04697D
:107E50000132B2FBF4F104FB11224262826B32B1B7
:107E60001368DB070BD4BDE81040FFF7B8BFC06C48
:107E700040F22771BDE81040012203F0FFBF10BDA2
:107E800013B50C46214B224A98601A60214A4FF4E0
:107E900080405A61204A01219A614FF48072DA6071
:107EA0001A611E4A5A63143A9A6303F0B7FB02231D
:107EB0008DF803304FF40073ADF80030A2074FF097
:107EC00018038DF8023003D515486946FDF776FF93
:107ED0004FF48063ADF8003048238DF80230E3079B
:107EE00003D50F486946FDF769FF0E238DF804306E
:107EF00001A801238DF805308DF806308DF8073084
:107F000002F008FF014802B010BD00BF500A002077
:107F1000D8F5000850090020500800205800024001
:107F20000008014037B50D46214C224BA06023606C
:107F30008023E360402323611F4B4FF400306361D3
:107F40001E4B0121A3611E4BE36403F073FB02236C
:107F50008DF803300423ADF80030AA074FF0180362
:107F60008DF8023003D517486946FDF727FF08232F
:107F7000ADF8003048238DF80230EB0703D51148E7
:107F80006946FDF71BFF26238DF8043002220123EA
:107F900001A88DF805308DF807308DF8062002F025
:107FA000B9FE0348002384F8303003B030BD00BF71
:107FB000A00A0020D8F50008900700201008002033
:107FC00000440040000801402DE9F0411E465A4B94
:107FD00090B0984205468846174604D1104631466F
:107FE000FFF74EFF07E0554B984240F09D8010464A
:107FF0003146FFF797FF002306F004020362C361D6
:108000008362436206710446ADF80830C564C0F867
:108010002C808760019702F0FF0332B14FF40053C8
:10802000ADF80A304FF4806301E0ADF80A3016F085
:108030000108ADF80C304FF00003ADF8103006F039
:10804000020616BF0423ADF80E80ADF80E3006F020
:10805000FF072EB1BDF80E3043F00803ADF80E3027
:10806000284601A903F0A8FE2846012103F0FAFEE4
:1080700005A802F0AFFF2B1D05934FF480530E931C
:10808000802200230F9309930B930A920C93B8F16B
:10809000000F22D0606BD0B107932023E2680D93CC
:1080A00063690892069302F0FFFE606B05A902F077
:1080B00073FF606B012102F09AFF284640210122E4
:1080C00003F0F5FE606B02F0A7FF606405E0284650
:1080D00040F22551012203F0D1FE47B3A06BE0B17D
:1080E000236900260893102307930D9602F0DCFE07
:1080F000A06B05A902F050FFA06B0122022102F043
:1081000081FFA06B314602F085FFA36B28465E60BD
:108110008021012203F0CBFE09E0284640F22771BE
:10812000012203F0ABFE02E00023D864FFDE20460C
:1081300010B0BDE8F08100BF0038014000440040AD
:1081400010B50B4C4FF4005002F06AFFA06B0021F9
:1081500002F04DFF626AA36A9A4204D02046BDE84D
:108160001040FFF73CBE012384F8483010BD00BF2B
:10817000500A00200C4BD86C0288120613D59A6A5C
:10818000596A8A420AD09969895C013281801869EA
:10819000B2FBF0F100FB11229A62704740F22771A6
:1081A000002203F06BBE7047500A002038B51A4C0D
:1081B000E36C1D88ADB2AA0612D5E26A1AB198889E
:1081C00080B290470CE09B88E2696169DBB28B5416
:1081D000E369E1680133B3FBF1F201FB1233E361C0
:1081E0002B0617D5A36A616A0B4A8B42D06C0AD062
:1081F0009169C95C013381801069B3FBF0F100FB28
:108200001133936238BD40F22771BDE83840002237
:1082100003F034BE38BD00BFA00A002008B500F04E
:1082200035F8064B00221A6004F0FCFD04F022FE33
:1082300004F02BFEBDE8084004F096BBE81B0020CC
:1082400007B500238DF80730002000F045F800281E
:10825000FAD00DF10701002000F070F89DF807003A
:1082600003B05DF804FB08B5002000F035F80030DD
:1082700018BF012008BD0000034B1B68052B01D16E
:1082800004F096BE704700BF94100020024A0023FD
:108290001380024A13807047EE1F0020F01F002059
:1082A0000A4B0B4A33F9103032F9102009489B1A57
:1082B00003F5806318400028BFBF00F1FF306FEA6C
:1082C00080506FEA90500130704700BFF01F0020CF
:1082D000EE1F0020FF030080FFF7E2BF38B5044621
:1082E0000D46FFF7DDFF40F2FF3398421DD01048E6
:1082F00004EB842130F81420531C9BB220F8143076
:1083000012B22D780A440B498D541AB20A4B13400D
:10831000002BBFBF03F1FF336FEA83536FEA935320
:10832000013320F81430012038BD002038BD00BFD3
:10833000F01F0020EC1B0020FF03008038B504462E
:108340000D46FFF7ADFFE0B10E4A012032F81430C0
:10835000591C22F814101BB204EB84210B440A4967
:10836000CB5C2B7032F91410084B0B40002BBFBFB5
:1083700003F1FF336FEA83536FEA9353013322F81B
:10838000143038BDEE1F0020EC1B0020FF030080DE
:1083900010B5044C002320702361FFF70BFB6061D4
:1083A00010BD00BFF81F002010B5FBF7B3FB002184
:1083B0000446FBF7BFFD08B1204601E004F1004090
:1083C0000549FBF7AFFC0549FBF7F8FB05F0E0FCBE
:1083D000034B186010BD00BF8096184B35FA8E3CD9
:1083E0001C000020F8B5101A0D461F46FBF792FB43
:1083F0000446781BFBF78EFB174B079E1968FBF7AB
:10840000DDFB214605462046FBF7D8FB29460746FB
:108410002846FBF7D3FB01463846FBF7C7FA05F0C1
:1084200069FD0E49FBF7CAFBFBF7B4FD069B294625
:10843000186004F1004005F05BFD0949FBF7BEFB45
:108440000849FBF7B3FAFBF77FFD0028BCBF00F536
:108450000C40A0303060F8BD1C0000202C7D8E3F09
:10846000A00CB34500A00C46F8B51D460E461446B8
:10847000FBF750FB6968FBF7A1FB3146FBF79EFB5E
:108480002168FBF793FA2060FBF75EFDED68074675
:1084900005F10040FBF758FD06462846FBF754FD62
:1084A00031460246384602F0EDF8FBF733FB206018
:1084B000FBF74AFDF8BD000030B505460020024636
:1084C0000B498C5C0B4694B12E2C04D1013275B152
:1084D000134400245C550A235843895C0132A1F1FE
:1084E0003003092B9CBFA0F130035818E8E730BDDA
:1084F000110C002010B50B4CE37A8BB10A4B1B78A2
:10850000042B0DD9094A0A4B1068526818605A604A
:10851000FFF74AFF074B1A88074B1A800123237382
:1085200010BD00BFA42000205C21002038210020C5
:1085300008210020E8210020820B002070B5204C8B
:10854000204D6079FBF7E2FA1F49FBF7EBFB28604F
:10855000E07BFBF7DBFA1C49FBF7E4FB1B4E686092
:10856000EE60A079FBF7D2FA1949FBF7DBFB194D56
:108570002860207CFBF7CAFA1349FBF7D3FB68603D
:10858000A07EFBF7C3FA1449FBF7CCFBEE60A860B2
:10859000E079FBF7BBFA0E49FBF7C4FB0F4D2860EF
:1085A000607CFBF7B3FA0849FBF7BCFB6860E07E30
:1085B000FBF7ACFA0849FBF7B5FBEE60A86070BDAD
:1085C000101200206C0B00200000C8420000FA448A
:1085D00000002041A00B002000007A44580B00202E
:1085E00038B505460020FFF7D3FE4FF48070FCF746
:1085F000BDFEF8B1104C6570FFF7DCF90023636035
:108600000E4BA06093F81C31002B14BF03240124EF
:10861000FFF794FF0C226A43094B0A489A580A490B
:108620002346FFF7D1FC094B58600120BDE83840D4
:10863000FFF7AEBE38BD00BFF81F0020D4120020E7
:10864000C8F600080044004019870008900F002079
:1086500044F25063984203DDA0F50C40A038704707
:10866000034B9842BCBF00F50C40A030704700BFE0
:10867000B0B9FFFFF0B50446234B1D6826782146AC
:10868000AB195A78013402F0040202F0FF03002A09
:10869000F4D10A1A022A0ADD1BB103EB83035B0043
:1086A000DBB210F8012B303A1344DBB2F1E70022C1
:1086B00081420AD91AB102EB82025200D2B210F8FA
:1086C000014B303C2244D2B2F2E72E2E0FD1481C8F
:1086D000042600210A24614304782F197F787F073C
:1086E00042BF303C01300919013EF3D100E00021C6
:1086F00006484243642000FB01210620B1FBF0F153
:10870000034800FB0310F0BD6801002040420F0049
:1087100080969800000000002DE9F04F9C4B8FB030
:1087200093F81C31C4B2012B00F0D58002D3022B88
:1087300040F09D85242C08D1964A00231370964A58
:108740001370964A137000F092BD2C2C01D02A2C85
:108750007ED1914F8F4E924B3A78357800209854C5
:1087600090491A46B5B91B780D70472B67D15378DD
:10877000502B64D19378472B40F06885D378472BF2
:1087800040F064851379412B40F0608501230B7024
:1087900000F05CBD0A78012A3AD1022D05D11846B5
:1087A000FFF768FF804B186049E0032D07D11B7865
:1087B000532B44D17C4A13685B4213603FE0042D85
:1087C00005D11846FFF756FF774B586037E0052D67
:1087D00007D11B78572B32D1734A53685B425360E1
:1087E0002DE0062D07D11B78704A302B94BF002353
:1087F0000123D37223E0072D04D1FFF75DFE6C4BFC
:1088000018701CE0092D1AD1FFF756FE694B15E0D0
:10881000022A14D1072D0BD10120FFF74DFE41F2A2
:10882000184358434FF47A73B0FBF3F0624B05E002
:10883000082D04D10120FFF73FFE604B1880013561
:1088400000232A2C35703B7039D101225C4B59E052
:108850000D2C5B4801D00A2C25D10378F3B1504A86
:1088600011785478A1F13003DBB2092B84BFA1F158
:108870003703DBB2A4F1300203F00F031901D3B2C6
:10888000092B84BFA4F13703DBB2444A03F00F0382
:108890000B441278DBB2D41A6342634100220270A7
:1088A0009BB900F0E4BC3C4A13780E2B9FBF591CC7
:1088B00011703B4AD4540378002B40F0D884374AD7
:1088C00013785C40147000F0D2BC364B1B78012B3F
:1088D00040F0CD842CE13B4B1A78082A00F2C78483
:1088E000DFE802F00B05131B2A397E97A100622CEA
:1088F00001D1022206E000221A70B52C40F0B784A4
:108900001A7801321A7000F0B2BC03221A702E4B92
:108910001C702E4B1C702E4B0BE004221A702B4A3D
:108920002B4913782344DBB213700A7813440B707D
:10893000284B1C7000F09BBC05221A70234A244966
:1089400013782344DBB213700A7813440B70224B64
:108950001C8000F08CBC06221A701C4A1C4913783B
:108960002344DBB213700A7813441B4A0B7013883C
:1089700003EB0424A4B2B4F5007F83BF002313806B
:10898000104A148088BF13700022144B00F05CBCA6
:10899000D4120020070C0020000C0020980B0020AF
:1089A000110C0020BD0B002038210020A420002045
:1089B0005C210020B6200020D8200020400E00209E
:1089C0007C0B0020200C0020BC0B00207D0B002025
:1089D0007E0B0020180B0020800B0020680B00206D
:1089E0008D498E480A782244D2B20A7001780A442E
:1089F0008B4902700A88C72A9CBF8A488454013276
:108A000092B20A8088490988914240F03084072256
:108A100078E708221A70804B1B78A34200F0278465
:108A20000022824B6EE700221A707C4B1B78A34217
:108A300040F01D847E4B1B78062B3AD005D8022BC4
:108A400013D0032B25D000F012BC122B44D0302BB6
:108A500040F00D84734B1A79764B102A88BF102290
:108A60001A7019786F4A002344E06E4B724A5968B5
:108A7000516099681B6911604FF47A7293FBF2F3AD
:108A80006E4A13806E4B1A786E4BDA7201226E4B6F
:108A900020E0644A537913F0010303D01379D81E00
:108AA00043424341664A1370002B34D1654AD37266
:108AB00031E05C4AD37A13F0010303D0937AD91ED4
:108AC0004B424B415E490B700BB95E49CB7292F839
:108AD0002F205E4B1A701EE0524B5D4A59699B690C
